S01400006D617263616A6550756C736F2E737265632A
S113000010C017C016C015C014C013C012C011C050
S113001010C00FC00EC00DC00CC00BC00AC009C078
S113002008C011241FBECFE5D2E0DEBFCDBF11D082
S113003030C0E6CF8AB381608ABB8AB382608ABB50
S11300408AB384608ABB089583E087B983E886B95C
S11300500895F0DFF9DF8BB381608BBB8BB38260D3
S11300608BBB86B1806486B93699FECF24B185B145
S113007090E0982F8827822B8A5991408B399140A0
S113008020F48BB384608BBBE6CF8BB38B7F8BBBAD
S1090090E2CFF894FFCF5B
S9030000FC
