:1000000010C017C016C015C014C013C012C011C054
:1000100010C00FC00EC00DC00CC00BC00AC009C07C
:1000200008C011241FBECFE5D2E0DEBFCDBF02D095
:100030002CC0E6CF8AB381608ABB8AB382608ABB58
:100040008AB384608ABB8BB382608BBB8BB38B7F9C
:100050008BBB8BB381608BBB2FEB87E299E0215088
:1000600080409040E1F700C000008BB384608BBB00
:100070008BB38E7F8BBB2FEB87E299E021508040C2
:0E0080009040E1F700C00000DECFF894FFCF03
:00000001FF
