S015000070727565626150756C736F42742E73726563C7
S113000010C017C016C015C014C013C012C011C050
S113001010C00FC00EC00DC00CC00BC00AC009C078
S113002008C011241FBECFE5D2E0DEBFCDBF02D091
S113003026C0E6CF8AB381608ABB8AB388608ABB54
S113004082E087B983E886B986B1806486B9369937
S1130050FECF24B185B190E0982F8827822B2BB353
S113006021602BBB8A5991408F34924020F48BB38A
S113007088608BBBE9CF8BB3877F8BBBE5CFF894CC
S1050080FFCFAC
S9030000FC
